{
  "contractName": "fragmentClaimer",
  "abi": [
    {
      "inputs": [
        {
          "internalType": "uint256",
          "name": "_maxTokenId",
          "type": "uint256"
        },
        {
          "internalType": "address",
          "name": "_ERC721address",
          "type": "address"
        }
      ],
      "stateMutability": "nonpayable",
      "type": "constructor"
    },
    {
      "anonymous": false,
      "inputs": [
        {
          "indexed": false,
          "internalType": "address",
          "name": "_account",
          "type": "address"
        },
        {
          "indexed": false,
          "internalType": "bool",
          "name": "_value",
          "type": "bool"
        }
      ],
      "name": "UpdateWhitelist",
      "type": "event"
    },
    {
      "anonymous": false,
      "inputs": [
        {
          "indexed": false,
          "internalType": "uint256",
          "name": "_tokenNumber",
          "type": "uint256"
        },
        {
          "indexed": false,
          "internalType": "address",
          "name": "_tokenClaimer",
          "type": "address"
        }
      ],
      "name": "aTokenWasClaimed",
      "type": "event"
    },
    {
      "anonymous": false,
      "inputs": [
        {
          "indexed": false,
          "internalType": "address",
          "name": "_withdrawer",
          "type": "address"
        },
        {
          "indexed": false,
          "internalType": "uint256",
          "name": "_funds",
          "type": "uint256"
        }
      ],
      "name": "withdrawFunds",
      "type": "event"
    },
    {
      "anonymous": false,
      "inputs": [
        {
          "indexed": false,
          "internalType": "address",
          "name": "_tipper",
          "type": "address"
        }
      ],
      "name": "yeeeeeeaaaaaahThxCoeurCoeurCoeur",
      "type": "event"
    },
    {
      "stateMutability": "payable",
      "type": "fallback",
      "payable": true
    },
    {
      "inputs": [
        {
          "internalType": "uint256",
          "name": "",
          "type": "uint256"
        }
      ],
      "name": "tokensThatWereClaimed",
      "outputs": [
        {
          "internalType": "bool",
          "name": "",
          "type": "bool"
        }
      ],
      "stateMutability": "view",
      "type": "function",
      "constant": true
    },
    {
      "inputs": [
        {
          "internalType": "address",
          "name": "",
          "type": "address"
        }
      ],
      "name": "whitelist",
      "outputs": [
        {
          "internalType": "bool",
          "name": "",
          "type": "bool"
        }
      ],
      "stateMutability": "view",
      "type": "function",
      "constant": true
    },
    {
      "inputs": [
        {
          "internalType": "uint256",
          "name": "_tokenToClaim",
          "type": "uint256"
        },
        {
          "internalType": "bytes",
          "name": "_signature",
          "type": "bytes"
        }
      ],
      "name": "claimAToken",
      "outputs": [
        {
          "internalType": "bool",
          "name": "",
          "type": "bool"
        }
      ],
      "stateMutability": "payable",
      "type": "function",
      "payable": true
    },
    {
      "inputs": [],
      "name": "withdrawTips",
      "outputs": [],
      "stateMutability": "nonpayable",
      "type": "function"
    },
    {
      "inputs": [
        {
          "internalType": "address",
          "name": "_account",
          "type": "address"
        },
        {
          "internalType": "bool",
          "name": "_value",
          "type": "bool"
        }
      ],
      "name": "updateWhitelist",
      "outputs": [
        {
          "internalType": "bool",
          "name": "",
          "type": "bool"
        }
      ],
      "stateMutability": "nonpayable",
      "type": "function"
    }
  ],
  "bytecode": "0x608060405234801561001057600080fd5b50604051610c9f380380610c9f8339818101604052604081101561003357600080fd5b81019080805190602001909291908051906020019092919050505060016000803373ffffffffffffffffffffffffffffffffffffffff1673ffffffffffffffffffffffffffffffffffffffff16815260200190815260200160002060006101000a81548160ff0219169083151502179055508160028190555080600460006101000a81548173ffffffffffffffffffffffffffffffffffffffff021916908373ffffffffffffffffffffffffffffffffffffffff1602179055505050610ba1806100fe6000396000f3fe60806040526004361061004e5760003560e01c80630d392cd9146100ce578063255dee64146101435780633aaa74b2146102205780634a80edcb146102375780639b19251a1461028a5761004f565b5b60003411156100cc57346003600082825401925050819055507f98122775feb83292ce43154cc4bc798bff4ba6678820c087b8c80c67cbc636f533604051808273ffffffffffffffffffffffffffffffffffffffff1673ffffffffffffffffffffffffffffffffffffffff16815260200191505060405180910390a15b005b3480156100da57600080fd5b50610129600480360360408110156100f157600080fd5b81019080803573ffffffffffffffffffffffffffffffffffffffff1690602001909291908035151590602001909291905050506102f3565b604051808215151515815260200191505060405180910390f35b6102066004803603604081101561015957600080fd5b81019080803590602001909291908035906020019064010000000081111561018057600080fd5b82018360208201111561019257600080fd5b803590602001918460018302840111640100000000831117156101b457600080fd5b91908080601f016020809104026020016040519081016040528093929190818152602001838380828437600081840152601f19601f820116905080830192505050505050509192919290505050610482565b604051808215151515815260200191505060405180910390f35b34801561022c57600080fd5b5061023561083a565b005b34801561024357600080fd5b506102706004803603602081101561025a57600080fd5b81019080803590602001909291905050506109b0565b604051808215151515815260200191505060405180910390f35b34801561029657600080fd5b506102d9600480360360208110156102ad57600080fd5b81019080803573ffffffffffffffffffffffffffffffffffffffff1690602001909291905050506109d0565b604051808215151515815260200191505060405180910390f35b60008060003373ffffffffffffffffffffffffffffffffffffffff1673ffffffffffffffffffffffffffffffffffffffff16815260200190815260200160002060009054906101000a900460ff166103b3576040517f08c379a00000000000000000000000000000000000000000000000000000000081526004018080602001828103825260178152602001807f4163636f756e74204e6f742057686974656c697374656400000000000000000081525060200191505060405180910390fd5b816000808573ffffffffffffffffffffffffffffffffffffffff1673ffffffffffffffffffffffffffffffffffffffff16815260200190815260200160002060006101000a81548160ff0219169083151502179055507f08b2c0469ecd1d7a21d7e1492f0fc75fc7e8e0fa4fdf4275949c90875f5ebdf58383604051808373ffffffffffffffffffffffffffffffffffffffff1673ffffffffffffffffffffffffffffffffffffffff168152602001821515151581526020019250505060405180910390a16001905092915050565b60006001600084815260200190815260200160002060009054906101000a900460ff1615610518576040517f08c379a000000000000000000000000000000000000000000000000000000000815260040180806020018281038252601c8152602001807f436c61696d3a20746f6b656e20616c726561647920636c61696d65640000000081525060200191505060405180910390fd5b600254831115610590576040517f08c379a00000000000000000000000000000000000000000000000000000000081526004018080602001828103825260188152602001807f436c61696d3a20746f6b656e4964206f7574626f756e6473000000000000000081525060200191505060405180910390fd5b6000600460009054906101000a900473ffffffffffffffffffffffffffffffffffffffff1684604051602001808373ffffffffffffffffffffffffffffffffffffffff1673ffffffffffffffffffffffffffffffffffffffff1681526020018281526020019250505060405160208183030381529060405280519060200120905061061b81846109f0565b61068d576040517f08c379a000000000000000000000000000000000000000000000000000000000815260040180806020018281038252601d8152602001807f436c61696d3a207369676e6572206e6f742077686974656c697374656400000081525060200191505060405180910390fd5b6000600460009054906101000a900473ffffffffffffffffffffffffffffffffffffffff1690508073ffffffffffffffffffffffffffffffffffffffff1663bfcd198a866040518263ffffffff1660e01b815260040180828152602001915050600060405180830381600087803b15801561070757600080fd5b505af115801561071b573d6000803e3d6000fd5b50505050600180600087815260200190815260200160002060006101000a81548160ff0219169083151502179055507f4079d6cdd2cbe956002b074ad7fb0ab4a6e5b284448268f20d7e9b0b6e60562a8533604051808381526020018273ffffffffffffffffffffffffffffffffffffffff1673ffffffffffffffffffffffffffffffffffffffff1681526020019250505060405180910390a16000341115610832577f98122775feb83292ce43154cc4bc798bff4ba6678820c087b8c80c67cbc636f533604051808273ffffffffffffffffffffffffffffffffffffffff1673ffffffffffffffffffffffffffffffffffffffff16815260200191505060405180910390a1346003600082825401925050819055505b505092915050565b6000803373ffffffffffffffffffffffffffffffffffffffff1673ffffffffffffffffffffffffffffffffffffffff16815260200190815260200160002060009054906101000a900460ff166108f8576040517f08c379a00000000000000000000000000000000000000000000000000000000081526004018080602001828103825260178152602001807f4163636f756e74204e6f742057686974656c697374656400000000000000000081525060200191505060405180910390fd5b3373ffffffffffffffffffffffffffffffffffffffff166108fc6003549081150290604051600060405180830381858888f19350505050158015610940573d6000803e3d6000fd5b507fc10753299d70f8b15c8a36ea98ae66c6d383e39fa5dd4e0ffcdea85c2223b2c833600354604051808373ffffffffffffffffffffffffffffffffffffffff1673ffffffffffffffffffffffffffffffffffffffff1681526020018281526020019250505060405180910390a1565b60016020528060005260406000206000915054906101000a900460ff1681565b60006020528060005260406000206000915054906101000a900460ff1681565b6000806000806041855114610a0b5760009350505050610b65565b6020850151925060408501519150606085015160001a9050601b8160ff161015610a3657601b810190505b601b8160ff1614158015610a4e5750601c8160ff1614155b15610a5f5760009350505050610b65565b60008060018860405160200180807f19457468657265756d205369676e6564204d6573736167653a0a333200000000815250601c018281526020019150506040516020818303038152906040528051906020012084878760405160008152602001604052604051808581526020018460ff1660ff1681526020018381526020018281526020019450505050506020604051602081039080840390855afa158015610b0d573d6000803e3d6000fd5b5050506020604051035173ffffffffffffffffffffffffffffffffffffffff1673ffffffffffffffffffffffffffffffffffffffff16815260200190815260200160002060009054906101000a900460ff1693505050505b9291505056fea2646970667358221220c69cd25d67124c6d9482d6b23285b771af41a4954f76762e4a22eeebf55d976464736f6c63430006020033",
  "source": "pragma solidity ^0.6.2;\n\nimport \"./Fragment.sol\";\n\ncontract fragmentClaimer {\n    event UpdateWhitelist(address _account, bool _value);\n    event aTokenWasClaimed(uint _tokenNumber, address _tokenClaimer);\n    event yeeeeeeaaaaaahThxCoeurCoeurCoeur(address _tipper);\n    event withdrawFunds(address _withdrawer, uint _funds);\n\n    mapping(address => bool) public whitelist;\n    mapping(uint => bool) public tokensThatWereClaimed;\n\n    uint maxTokenId;\n    uint totalFunds;\n    address ERC721address;\n\n    constructor(uint _maxTokenId, address _ERC721address) public {\n        whitelist[msg.sender] = true;\n        maxTokenId = _maxTokenId;\n        ERC721address = _ERC721address;\n    }\n\n    fallback () external payable {\n        if (msg.value > 0) {\n            totalFunds += msg.value;\n            emit yeeeeeeaaaaaahThxCoeurCoeurCoeur(msg.sender);\n        }\n    }\n\n    function claimAToken(uint _tokenToClaim, bytes memory _signature) \n    public \n    payable\n    returns (bool)\n    {\n\n        // Checking if the token has already been claimed\n        require(!tokensThatWereClaimed[_tokenToClaim], \"Claim: token already claimed\");\n        // Not sure this is useful but oh well\n        require(_tokenToClaim <= maxTokenId, \"Claim: tokenId outbounds\");\n        // Creating a hash unique to this token number, and this token contract\n        bytes32 _hash = keccak256(abi.encode(ERC721address, _tokenToClaim));\n        // Making sure that the signer has been whitelisted\n        require(signerIsWhitelisted(_hash, _signature), \"Claim: signer not whitelisted\");\n        // All should be good, so we mint a token yeah\n        Fragment targetERC721Contract = Fragment(ERC721address);\n        targetERC721Contract.mintAToken(_tokenToClaim);\n\n        // Registering that the token was claimed\n        // Note that there is a check in the ERC721 for this too\n        tokensThatWereClaimed[_tokenToClaim] = true;\n        // Emitting an event\n        emit aTokenWasClaimed(_tokenToClaim, msg.sender);\n\n        // If a tip was included, thank the tipper\n        if (msg.value > 0) {\n            emit yeeeeeeaaaaaahThxCoeurCoeurCoeur(msg.sender);\n            totalFunds += msg.value;\n        }\n    }\n\n    function withdrawTips() public onlyWhitelisted {\n        msg.sender.transfer(totalFunds);\n        emit withdrawFunds(msg.sender, totalFunds );\n    }\n\n\n    // 20/02/27: Borrowed from https://github.com/austintgriffith/bouncer-proxy/blob/master/BouncerProxy/BouncerProxy.sol\n    //borrowed from OpenZeppelin's ESDA stuff:\n    //https://github.com/OpenZeppelin/openzeppelin-solidity/blob/master/contracts/cryptography/ECDSA.sol\n    function signerIsWhitelisted(bytes32 _hash, bytes memory _signature) internal view returns (bool) {\n        bytes32 r;\n        bytes32 s;\n        uint8 v;\n        // Check the signature length\n        if (_signature.length != 65) {\n            return false;\n        }\n        // Divide the signature in r, s and v variables\n        // ecrecover takes the signature parameters, and the only way to get them\n        // currently is to use assembly.\n        // solium-disable-next-line security/no-inline-assembly\n        assembly {\n            r := mload(add(_signature, 32))\n            s := mload(add(_signature, 64))\n            v := byte(0, mload(add(_signature, 96)))\n        }\n        // Version of signature should be 27 or 28, but 0 and 1 are also possible versions\n        if (v < 27) {\n            v += 27;\n        }\n        // If the version is correct return the signer address\n        if (v != 27 && v != 28) {\n            return false;\n        } else {\n            // solium-disable-next-line arg-overflow\n            return whitelist[ecrecover(keccak256(\n                abi.encodePacked(\"\\x19Ethereum Signed Message:\\n32\", _hash)\n                ), v, r, s)];\n        }\n    }\n\n    //  20/02/27: Borrowed from https://github.com/rocksideio/contracts/blob/master/contracts/Identity.sol\n    function updateWhitelist(address _account, bool _value) onlyWhitelisted public returns (bool) {\n        whitelist[_account] = _value;\n        emit UpdateWhitelist(_account, _value);\n        return true;\n    }\n\n    modifier onlyWhitelisted() {\n        require(whitelist[msg.sender], \"Account Not Whitelisted\");\n        _;\n    }\n}\n",
  "sourcePath": "/Users/henrilieutaud/Documents/Workshop/Solidity/erc721-ux/contracts/fragmentClaimer.sol",
  "compiler": {
    "name": "solc",
    "version": "0.6.2+commit.bacdbe57.Emscripten.clang"
  },
  "schemaVersion": "3.4.4",
  "updatedAt": "2022-03-11T12:15:53.101Z",
  "networkType": "ethereum",
  "devdoc": {
    "methods": {}
  },
  "userdoc": {
    "methods": {}
  }
}